{
  "contractName": "ElectoralCommission",
  "abi": [
    {
      "inputs": [],
      "payable": false,
      "stateMutability": "nonpayable",
      "type": "constructor"
    },
    {
      "anonymous": false,
      "inputs": [
        {
          "indexed": false,
          "internalType": "address",
          "name": "who",
          "type": "address"
        },
        {
          "indexed": false,
          "internalType": "string",
          "name": "message",
          "type": "string"
        }
      ],
      "name": "Voted",
      "type": "event"
    },
    {
      "constant": true,
      "inputs": [],
      "name": "ballotBox",
      "outputs": [
        {
          "internalType": "uint256",
          "name": "voteCount",
          "type": "uint256"
        }
      ],
      "payable": false,
      "stateMutability": "view",
      "type": "function"
    },
    {
      "constant": true,
      "inputs": [],
      "name": "owner",
      "outputs": [
        {
          "internalType": "address",
          "name": "",
          "type": "address"
        }
      ],
      "payable": false,
      "stateMutability": "view",
      "type": "function"
    },
    {
      "constant": true,
      "inputs": [],
      "name": "partyA",
      "outputs": [
        {
          "internalType": "string",
          "name": "",
          "type": "string"
        }
      ],
      "payable": false,
      "stateMutability": "view",
      "type": "function"
    },
    {
      "constant": true,
      "inputs": [],
      "name": "partyB",
      "outputs": [
        {
          "internalType": "string",
          "name": "",
          "type": "string"
        }
      ],
      "payable": false,
      "stateMutability": "view",
      "type": "function"
    },
    {
      "constant": true,
      "inputs": [],
      "name": "partyC",
      "outputs": [
        {
          "internalType": "string",
          "name": "",
          "type": "string"
        }
      ],
      "payable": false,
      "stateMutability": "view",
      "type": "function"
    },
    {
      "constant": true,
      "inputs": [
        {
          "internalType": "string",
          "name": "",
          "type": "string"
        }
      ],
      "name": "partyVotes",
      "outputs": [
        {
          "internalType": "uint256",
          "name": "",
          "type": "uint256"
        }
      ],
      "payable": false,
      "stateMutability": "view",
      "type": "function"
    },
    {
      "constant": true,
      "inputs": [],
      "name": "triggerVoteCountError",
      "outputs": [
        {
          "internalType": "bool",
          "name": "",
          "type": "bool"
        }
      ],
      "payable": false,
      "stateMutability": "view",
      "type": "function"
    },
    {
      "constant": true,
      "inputs": [],
      "name": "voter",
      "outputs": [
        {
          "internalType": "address",
          "name": "voterId",
          "type": "address"
        },
        {
          "internalType": "uint256",
          "name": "vote",
          "type": "uint256"
        },
        {
          "internalType": "bool",
          "name": "hasVoted",
          "type": "bool"
        }
      ],
      "payable": false,
      "stateMutability": "view",
      "type": "function"
    },
    {
      "constant": true,
      "inputs": [],
      "name": "getTotalVoteCast",
      "outputs": [
        {
          "internalType": "uint256",
          "name": "",
          "type": "uint256"
        }
      ],
      "payable": false,
      "stateMutability": "view",
      "type": "function"
    },
    {
      "constant": true,
      "inputs": [
        {
          "internalType": "string",
          "name": "_party",
          "type": "string"
        }
      ],
      "name": "getPartyVotes",
      "outputs": [
        {
          "internalType": "uint256",
          "name": "",
          "type": "uint256"
        }
      ],
      "payable": false,
      "stateMutability": "view",
      "type": "function"
    },
    {
      "constant": false,
      "inputs": [
        {
          "internalType": "string",
          "name": "_party",
          "type": "string"
        }
      ],
      "name": "voteForParty",
      "outputs": [],
      "payable": false,
      "stateMutability": "nonpayable",
      "type": "function"
    }
  ],
  "bytecode": "0x60806040526005805460ff1916905534801561001a57600080fd5b50604080516060810182523380825260006020808401829052928401819052600680546001600160a01b0319169092179091556007556008805460ff1916905581518083019092526001808352604160f81b9290910191825261007d91816100d5565b50604080518082019091526001808252602160f91b60209092019182526100a6916002916100d5565b50604080518082019091526001808252604360f81b60209092019182526100cf916003916100d5565b50610170565b828054600181600116156101000203166002900490600052602060002090601f016020900481019282601f1061011657805160ff1916838001178555610143565b82800160010185558215610143579182015b82811115610143578251825591602001919060010190610128565b5061014f929150610153565b5090565b61016d91905b8082111561014f5760008155600101610159565b90565b61079d8061017f6000396000f3fe608060405234801561001057600080fd5b50600436106100a95760003560e01c806351fb94e21161007157806351fb94e2146102255780635409b77a146102cb57806383b7d8b2146102d357806388bf278d146102db5780638da5cb5b146102f7578063c2b406531461031b576100a9565b8063030d2243146100ae57806310e1d8ca1461016657806329040113146101e35780634530fa83146101eb57806346c96aac146101f3575b600080fd5b610154600480360360208110156100c457600080fd5b8101906020810181356401000000008111156100df57600080fd5b8201836020820111156100f157600080fd5b8035906020019184600183028401116401000000008311171561011357600080fd5b91908080601f0160208091040260200160405190810160405280939291908181526020018383808284376000920191909152509295506103c3945050505050565b60408051918252519081900360200190f35b61016e61042b565b6040805160208082528351818301528351919283929083019185019080838360005b838110156101a8578181015183820152602001610190565b50505050905090810190601f1680156101d55780820380516001836020036101000a031916815260200191505b509250505060405180910390f35b61016e6104b8565b610154610510565b6101fb610516565b604080516001600160a01b0390941684526020840192909252151582820152519081900360600190f35b6101546004803603602081101561023b57600080fd5b81019060208101813564010000000081111561025657600080fd5b82018360208201111561026857600080fd5b8035906020019184600183028401116401000000008311171561028a57600080fd5b91908080601f016020809104026020016040519081016040528093929190818152602001838380828437600092019190915250929550610531945050505050565b61015461054e565b61016e610554565b6102e36105af565b604080519115158252519081900360200190f35b6102ff6105b8565b604080516001600160a01b039092168252519081900360200190f35b6103c16004803603602081101561033157600080fd5b81019060208101813564010000000081111561034c57600080fd5b82018360208201111561035e57600080fd5b8035906020019184600183028401116401000000008311171561038057600080fd5b91908080601f0160208091040260200160405190810160405280939291908181526020018383808284376000920191909152509295506105c7945050505050565b005b60006004826040518082805190602001908083835b602083106103f75780518252601f1990920191602091820191016103d8565b51815160209384036101000a6000190180199092169116179052920194855250604051938490030190922054949350505050565b60018054604080516020600284861615610100026000190190941693909304601f810184900484028201840190925281815292918301828280156104b05780601f10610485576101008083540402835291602001916104b0565b820191906000526020600020905b81548152906001019060200180831161049357829003601f168201915b505050505081565b6002805460408051602060018416156101000260001901909316849004601f810184900484028201840190925281815292918301828280156104b05780601f10610485576101008083540402835291602001916104b0565b60095490565b6006546007546008546001600160a01b039092169160ff1683565b805160208183018101805160048252928201919093012091525481565b60095481565b6003805460408051602060026001851615610100026000190190941693909304601f810184900484028201840190925281815292918301828280156104b05780601f10610485576101008083540402835291602001916104b0565b60055460ff1681565b6000546001600160a01b031681565b60085460ff161580156105e457506006546001600160a01b031633145b80156105f05750600754155b6105f957600080fd5b60055460ff166106fb57600160078190556008805460ff19168217905560405182516004918491819060208401908083835b6020831061064a5780518252601f19909201916020918201910161062b565b51815160209384036101000a60001901801990921691161790529201948552506040805194859003820185208054969096019095556005805460ff191660019081179091556009805490910190556006546001600160a01b031680855290840185815260249585018690527fcb6783276e8a4347387036bbfea000268f0a4b1f8c46ac79980609f2af8d2acd95919493509150606083019061074582396040019250505060405180910390a1610741565b6040805162461bcd60e51b8152602060048201526016602482015275165bdd481a185d9948185b1c9958591e481d9bdd195960521b604482015290519081900360640190fd5b5056fe5468616e6b20796f752c20766f7465207265636f72646564207375636365737366756c79a265627a7a723158206a477fbcd422064fc931f06309758c77aa1530cdd072c43a1e3511e5ada043ff64736f6c63430005100032",
  "source": "pragma solidity ^0.5.16;\n// SPDX-License-Identifier: GPL-3.0\n\n\ncontract ElectoralCommission {\n\n    address public owner;\n\n    // declare a voter object which contains the information of each citizen \n    struct Voter {\n        address voterId;\n        uint vote;\n        bool hasVoted;\n    }\n\n   // declare a ballot object that contains the number of votes in the election process\n    struct BallotBox {\n        uint voteCount;\n    }\n\n   // various parties involved in the election\n   // hard coded parties for testing\n    string public partyA;\n    string public partyB;\n    string public partyC;\n\n   // map all parties to corresponding votes\n    mapping (string => uint) public partyVotes; \n\n   // hasAlreadyVotedError will be thrown when user triespublic to vote again\n\n    //error HasAlreadyVotedError (string message);\n    bool public triggerVoteCountError = false;\n\n   // events to used by the UI\n   // this emits the voted event containing the address of the voter\n    event Voted(address who, string message);\n    \n\n    // creating our one object of voter and ballotBox\n    Voter public voter;\n    BallotBox public ballotBox;\n\n   // ensure the address calling this smart contract is the voter\n   // set vote and hasVoted as seen below\n    constructor () public{\n        voter =  Voter({voterId : msg.sender, vote : 0, hasVoted:false});\n        // hard coded parties for testing\n        partyA = 'A';\n        partyB = 'B';\n        partyC = 'C';\n}\n\n// ensure the voter is the caller of this contract\n    modifier verifyVoter{\n       require(!(voter.hasVoted) && voter.voterId == msg.sender && voter.vote == 0);\n       _;\n   }\n\n    // read total votes in election \n    function getTotalVoteCast() public view returns (uint){\n        return ballotBox.voteCount;        \n    }\n\n    // read total votes of a party\n    function getPartyVotes(string memory _party) public view returns (uint){\n        return partyVotes[_party];     \n    }\n\n\n    // all verified voters can vote\n    function voteForParty(string memory _party) public verifyVoter {\n        if(!triggerVoteCountError){\n\n        // update the voter info\n        voter.vote = 1;\n        voter.hasVoted = true;\n\n        //increase the party total votest by one\n        partyVotes[_party] += 1;\n        \n        // set voteCountError to true to be able to revert network if voter tries to vote again\n        triggerVoteCountError = true;\n\n        // increase the votes in the ballotBox\n        ballotBox.voteCount += 1;\n\n        emit Voted({who: voter.voterId , message: 'Thank you, vote recorded successfuly'});\n        }else{\n            revert ('You have already voted');\n        }\n        \n    } \n\n}\n\n",
  "sourcePath": "/home/emmanuel/GitProjects/voting-smart-contract/contracts/ElectoralCommission.sol",
  "compiler": {
    "name": "solc",
    "version": "0.5.16+commit.9c3226ce.Emscripten.clang"
  },
  "schemaVersion": "3.4.4",
  "updatedAt": "2022-02-12T18:08:21.184Z",
  "networkType": "ethereum",
  "devdoc": {
    "methods": {}
  },
  "userdoc": {
    "methods": {}
  }
}