{
  "contractName": "GeneralElection",
  "abi": [
    {
      "inputs": [],
      "stateMutability": "nonpayable",
      "type": "constructor"
    },
    {
      "anonymous": false,
      "inputs": [
        {
          "indexed": false,
          "internalType": "address",
          "name": "who",
          "type": "address"
        },
        {
          "indexed": false,
          "internalType": "string",
          "name": "message",
          "type": "string"
        }
      ],
      "name": "Voted",
      "type": "event"
    },
    {
      "inputs": [],
      "name": "owner",
      "outputs": [
        {
          "internalType": "address",
          "name": "",
          "type": "address"
        }
      ],
      "stateMutability": "view",
      "type": "function"
    },
    {
      "inputs": [],
      "name": "getTotalVoteCast",
      "outputs": [
        {
          "internalType": "uint256",
          "name": "",
          "type": "uint256"
        }
      ],
      "stateMutability": "view",
      "type": "function"
    },
    {
      "inputs": [
        {
          "internalType": "string",
          "name": "_party",
          "type": "string"
        }
      ],
      "name": "getPartyVotes",
      "outputs": [
        {
          "internalType": "uint256",
          "name": "",
          "type": "uint256"
        }
      ],
      "stateMutability": "view",
      "type": "function"
    },
    {
      "inputs": [
        {
          "internalType": "string",
          "name": "_party",
          "type": "string"
        }
      ],
      "name": "voteForParty",
      "outputs": [],
      "stateMutability": "nonpayable",
      "type": "function"
    }
  ],
  "bytecode": "0x60806040526005805460ff1916905534801561001a57600080fd5b50604080516060810182523380825260006020808401829052928401819052600680546001600160a01b03191690921790915560078190556008805460ff191690558251918201909252819052600955610431806100796000396000f3fe608060405234801561001057600080fd5b506004361061004c5760003560e01c8063030d2243146100515780634530fa83146101095780638da5cb5b14610111578063c2b4065314610135575b600080fd5b6100f76004803603602081101561006757600080fd5b81019060208101813564010000000081111561008257600080fd5b82018360208201111561009457600080fd5b803590602001918460018302840111640100000000831117156100b657600080fd5b91908080601f0160208091040260200160405190810160405280939291908181526020018383808284376000920191909152509295506101dd945050505050565b60408051918252519081900360200190f35b6100f7610245565b61011961024b565b604080516001600160a01b039092168252519081900360200190f35b6101db6004803603602081101561014b57600080fd5b81019060208101813564010000000081111561016657600080fd5b82018360208201111561017857600080fd5b8035906020019184600183028401116401000000008311171561019a57600080fd5b91908080601f01602080910402602001604051908101604052809392919081815260200183838082843760009201919091525092955061025a945050505050565b005b60006004826040518082805190602001908083835b602083106102115780518252601f1990920191602091820191016101f2565b51815160209384036101000a6000190180199092169116179052920194855250604051938490030190922054949350505050565b60095490565b6003546001600160a01b031681565b60025460ff1615801561027757506000546001600160a01b031633145b80156102835750600154155b61028c57600080fd5b60055460ff1661038e57600160078190556008805460ff19168217905560405182516004918491819060208401908083835b602083106102dd5780518252601f1990920191602091820191016102be565b51815160209384036101000a60001901801990921691161790529201948552506040805194859003820185208054969096019095556005805460ff191660019081179091556009805490910190556006546001600160a01b031680855290840185815260249585018690527fcb6783276e8a4347387036bbfea000268f0a4b1f8c46ac79980609f2af8d2acd9591949350915060608301906103d882396040019250505060405180910390a16103d4565b6040805162461bcd60e51b8152602060048201526016602482015275165bdd481a185d9948185b1c9958591e481d9bdd195960521b604482015290519081900360640190fd5b5056fe5468616e6b20796f752c20766f7465207265636f72646564207375636365737366756c79a2646970667358221220bbc83bd927a118906d9a247d4edb0765d75d60f1e769b44408f0ff096bfdbc6264736f6c63430007010033",
  "immutableReferences": {},
  "source": "pragma solidity ^0.7.1;\nimport \"./electoral_commission.sol\";\n\n// SPDX-License-Identifier: GPL-3.0\n\ncontract GeneralElection is EC {\n    address public owner;\n\n    // map all parties to corresponding votes\n    mapping(string => uint256) private partyVotes;\n\n    // hasAlreadyVotedError will be thrown when user tries to vote again\n    // error HasAlreadyVoted(address who, string message);\n\n    //error HasAlreadyVotedError (string message);\n    bool private triggerVoteCountError = false;\n\n    // will be emitted when an address(voter) votes\n    event Voted(address who, string message);\n\n    Voter private voter;\n    BallotBox private ballotBox;\n\n    // ensure the address calling/transacting this smart contract is the voter\n    // set vote and hasVoted as seen below\n    constructor() {\n        voter = Voter({voterId: msg.sender, vote: 0, hasVoted: false});\n        // hard coded parties for testing\n\n        ballotBox = BallotBox({voteCount: 0});\n    }\n\n    // read total votes in election\n    function getTotalVoteCast() public view virtual override returns (uint256) {\n        return ballotBox.voteCount;\n    }\n\n    // read total votes of a party\n    function getPartyVotes(string memory _party)\n        public\n        view\n        virtual\n        override\n        returns (uint256)\n    {\n        return partyVotes[_party];\n    }\n\n    // all verified voters can vote\n    function voteForParty(string memory _party)\n        external\n        virtual\n        override\n        verifyVoter\n    {\n        if (!triggerVoteCountError) {\n            // update the voter info\n            voter.vote = 1;\n            voter.hasVoted = true;\n\n            //increase the party total votes by one\n            partyVotes[_party] += 1;\n\n            // set voteCountError to true to be able to revert network if voter tries to vote again\n            triggerVoteCountError = true;\n\n            // increase the votes in the ballotBox\n            ballotBox.voteCount += 1;\n\n            emit Voted({\n                who: voter.voterId,\n                message: \"Thank you, vote recorded successfuly\"\n            });\n        } else {\n            revert(\"You have already voted\");\n        }\n    }\n}\n",
  "sourcePath": "/home/emmanuel/GitProjects/voting-smart-contract/smart_contracts/contracts/general_election.sol",
  "compiler": {
    "name": "solc",
    "version": "0.7.1+commit.f4a555be.Emscripten.clang"
  },
  "schemaVersion": "3.4.4",
  "updatedAt": "2022-02-12T18:06:55.719Z",
  "devdoc": {
    "kind": "dev",
    "methods": {},
    "version": 1
  },
  "userdoc": {
    "kind": "user",
    "methods": {},
    "version": 1
  }
}