{
  "contractName": "ElectoralCommission",
  "abi": [
    {
      "inputs": [],
      "payable": false,
      "stateMutability": "nonpayable",
      "type": "constructor"
    },
    {
      "anonymous": false,
      "inputs": [
        {
          "indexed": false,
          "internalType": "address",
          "name": "who",
          "type": "address"
        }
      ],
      "name": "Voted",
      "type": "event"
    },
    {
      "constant": true,
      "inputs": [],
      "name": "getVotes",
      "outputs": [
        {
          "internalType": "uint256",
          "name": "",
          "type": "uint256"
        }
      ],
      "payable": false,
      "stateMutability": "view",
      "type": "function"
    }
  ],
  "bytecode": "0x6080604052348015600f57600080fd5b50604080516060810182523380825260006020830181905291909201819052600180546001600160a01b0319169092179091556002556003805460ff1916905560808061005d6000396000f3fe6080604052348015600f57600080fd5b506004361060285760003560e01c80630dc9601514602d575b600080fd5b60336045565b60408051918252519081900360200190f35b6004549056fea265627a7a72315820aabe61be5fcb6943c1e450e354037bfdfe85b99b2cc0bbcbff1a5a98eb7bec6264736f6c63430005100032",
  "source": "// SPDX-License-Identifier: GPL-3.0\npragma solidity >=0.4.0 <0.9.0;\n\ncontract ElectoralCommission{\n    // declare a voter object which contains the information of each citizen \n   struct Voter{\n       address voterId;\n       uint vote;\n       bool hasVoted;\n   }\n\n   // declare a ballot object that contains the number of votes in the election process\n   struct BallotBox{\n       uint voteCount;\n   }\n\n  // to control the number of times a user votes \n   bool private triggerVoteCountError; \n\n   // events to used by the UI\n   // this emits the voted event containing the address of the voter\n   event Voted(address who);\n\n    // creating our one object of voter and ballotBox\n     Voter voter;\n     BallotBox ballotBox;\n\n   // ensure the address calling this smart contract is the voter\n   // set vote and hasVoted as seen below\n   constructor ()public{\n      voter =  Voter({voterId : msg.sender, vote : 0, hasVoted:false});\n   }\n\n   // ensure the voter is the caller of this contract\n   modifier verifyVoter{\n       require(!(voter.hasVoted) && voter.voterId == msg.sender && voter.vote == 0);\n       _;\n   }\n\n    // read all votes \n    function getVotes() public view returns (uint){\n        return ballotBox.voteCount;        \n    }\n\n    // all verified voters can vote\n    function vote() private verifyVoter {\n        if(!triggerVoteCountError){\n\n        // update the voter info\n        voter.vote = 1;\n        voter.hasVoted = true;\n        triggerVoteCountError = true;\n\n        // increase the votes in the ballotBox\n        ballotBox.voteCount += 1;\n\n        emit Voted({who: voter.voterId});\n        }else{\n            revert('Can vote only once');\n        }\n        \n    } \n\n}\n\n\n\n\n\n\n\n\n/**  idea for voting\n for a user\n a user can vote for either one of three parties\n a user can only invoke the vote functions once\n\n for vote counter\n the vote counter will be a contract that keeps track of all votes..\n\n **/\n\n /**\n The idea is to to do the work of the electoral commission using a smart contract\n Lets first find out what the EC does\n\n primary functions of the EC\n\n 1. to validate all citizens prior to casting process\n 2. Ensure no citizen votes more than once\n 3. counts all the votes\n 4. Declare winner\n\n ......................\n the electoral commission contract will have three objects to keep track of\n the voter, the number of in the ballot box\n\n  **/",
  "sourcePath": "/home/emmanuel/GitProjects/voting-smart-contract/contracts/ElectoralCommission.sol",
  "compiler": {
    "name": "solc",
    "version": "0.5.16+commit.9c3226ce.Emscripten.clang"
  },
  "schemaVersion": "3.4.4",
  "updatedAt": "2022-01-31T17:50:12.430Z",
  "networkType": "ethereum",
  "devdoc": {
    "methods": {}
  },
  "userdoc": {
    "methods": {}
  }
}