{
  "contractName": "Voter",
  "abi": [
    {
      "inputs": [],
      "payable": false,
      "stateMutability": "nonpayable",
      "type": "constructor"
    },
    {
      "anonymous": false,
      "inputs": [
        {
          "indexed": false,
          "internalType": "address",
          "name": "who",
          "type": "address"
        }
      ],
      "name": "Voted",
      "type": "event"
    },
    {
      "constant": true,
      "inputs": [],
      "name": "voter",
      "outputs": [
        {
          "internalType": "address",
          "name": "",
          "type": "address"
        }
      ],
      "payable": false,
      "stateMutability": "view",
      "type": "function"
    },
    {
      "constant": false,
      "inputs": [],
      "name": "vote",
      "outputs": [],
      "payable": false,
      "stateMutability": "nonpayable",
      "type": "function"
    }
  ],
  "bytecode": "0x608060405234801561001057600080fd5b50600080546001600160a01b03191633179055610211806100326000396000f3fe608060405234801561001057600080fd5b50600436106100365760003560e01c806346c96aac1461003b578063632a9a521461005f575b600080fd5b610043610069565b604080516001600160a01b039092168252519081900360200190f35b610067610078565b005b6000546001600160a01b031681565b600080546001600160a01b031681526001602081905260409091205461ffff161480156100af57506000546001600160a01b031633145b6100ea5760405162461bcd60e51b81526004018080602001828103825260288152602001806101b56028913960400191505060405180910390fd5b600080546001600160a01b031681526001602052604090205461ffff1661015a57600080546001600160a01b0316908190526001602090815260408051928352517f16a9aa39af49f169911e977347975198c503525f7240d6892a626f0227642fce9281900390910190a1610191565b60405162461bcd60e51b81526004018080602001828103825260218152602001806101946021913960400191505060405180910390fd5b56fe596f75206861766520616c726561647920766f7465642e205468616e6b20796f756d7573742062652061207573657220746f20706572666f726d2074686973206f7065726174696f6ea265627a7a72315820de6cbb0927a273068c28ad72eba9a7c2bec9ab0f9509db532aa52041c6022dc064736f6c63430005100032",
  "source": "// SPDX-License-Identifier: GPL-3.0\npragma solidity >=0.4.0 <0.9.0;\n\ncontract Voter{\n    // this represents a single votes\n   address public voter;\n\n    // make sure the voter is actually the bearer of the account \n    // just like checking the voterID of a person before voting\n   constructor()public {\n       voter = msg.sender;\n   }\n    // create an event that will be listened to on the frontend when a user votes and when a user tries to overvote\n    event Voted(address who);\n\n   // create an error that will be sent to potential voter when overvoting is tried\n   // error OverVoting (string message);\n\n    // vote modifier checks if address (voter) has already voted \n    mapping (address => uint16) private count;\n\n    //vote modifier checks if address (voter) has already voted \n    modifier canVote{\n        require(count[voter] >= 0, 'vote counts cannot be negative ');\n        require(count[voter] == 1 && voter == msg.sender, 'must be a user to perform this operation');\n        _;\n    }\n\n    // vote function to carry out voting\n\n    function vote() canVote public {\n        // further checks for overvoting\n        if(count[voter] == 0){\n            count[voter] + 1;\n            emit Voted(voter);\n        }else{\n            revert ( 'You have already voted. Thank you');\n        }\n    }\n\n}\n\n\n\n\n\n\n/**  idea for voting\n for a user\n a user can vote for either one of three parties\n a user can only invoke the vote functions once\n\n for vote counter\n the vote counter will be a contract that keeps track of all votes..\n\n **/",
  "sourcePath": "/home/emmanuel/GitProjects/voting-smart-contract/contracts/Voting.sol",
  "compiler": {
    "name": "solc",
    "version": "0.5.16+commit.9c3226ce.Emscripten.clang"
  },
  "schemaVersion": "3.4.4",
  "updatedAt": "2022-01-28T16:51:05.949Z",
  "devdoc": {
    "methods": {}
  },
  "userdoc": {
    "methods": {}
  }
}