{
  "contractName": "Voting",
  "abi": [
    {
      "inputs": [],
      "payable": false,
      "stateMutability": "nonpayable",
      "type": "constructor"
    },
    {
      "constant": false,
      "inputs": [],
      "name": "returnA",
      "outputs": [
        {
          "internalType": "uint256",
          "name": "",
          "type": "uint256"
        }
      ],
      "payable": false,
      "stateMutability": "nonpayable",
      "type": "function"
    },
    {
      "constant": false,
      "inputs": [],
      "name": "returnB",
      "outputs": [
        {
          "internalType": "uint256",
          "name": "",
          "type": "uint256"
        }
      ],
      "payable": false,
      "stateMutability": "nonpayable",
      "type": "function"
    },
    {
      "constant": false,
      "inputs": [],
      "name": "returnC",
      "outputs": [
        {
          "internalType": "uint256",
          "name": "",
          "type": "uint256"
        }
      ],
      "payable": false,
      "stateMutability": "nonpayable",
      "type": "function"
    }
  ],
  "bytecode": "0x6080604052600080556000600155600060025534801561001e57600080fd5b50600380546001600160a01b0319163317905561026f806100406000396000f3fe608060405234801561001057600080fd5b50600436106100415760003560e01c8063b17da74e14610046578063ceb688b814610060578063d947a8d914610068575b600080fd5b61004e610070565b60408051918252519081900360200190f35b61004e61007f565b61004e610089565b600061007a610093565b905090565b600061007a61011f565b600061007a6101ac565b6003546001600160a01b0316600090815260046020526040812054156100f9576040805162461bcd60e51b8152602060048201526016602482015275796f752063616e20766f7465206f6e6c79206f6e636560501b604482015290519081900360640190fd5b50600180546003546001600160a01b031660009081526004602052604090208290550190565b6003546001600160a01b031660009081526004602052604081205415610185576040805162461bcd60e51b8152602060048201526016602482015275796f752063616e20766f7465206f6e6c79206f6e636560501b604482015290519081900360640190fd5b50600080546003546001600160a01b03168252600460205260409091206001908190550190565b6003546001600160a01b031660009081526004602052604081205415610212576040805162461bcd60e51b8152602060048201526016602482015275796f752063616e20766f7465206f6e6c79206f6e636560501b604482015290519081900360640190fd5b506002546003546001600160a01b03166000908152600460205260409020600190819055019056fea265627a7a723158203874e9d818b9ad5e7984623076293bffd9f8065a2feba453d1fb08bc2868f77d64736f6c63430005100032",
  "source": "// SPDX-License-Identifier: GPL-3.0\r\npragma solidity >=0.4.0 <0.9.0;\r\n\r\ncontract Voting {\r\n    uint256  teamA = 0;\r\n    uint256 teamB = 0;\r\n    uint256 teamC = 0;\r\n    address voter;\r\n\r\n    mapping(address=> uint) eligibility;\r\n\r\n    constructor () public {\r\n        voter = msg.sender;\r\n    }\r\n\r\n    modifier onlyEligible{\r\n        require(eligibility[voter] == 0, \"you can vote only once\");\r\n        _;\r\n    }\r\n\r\n    function voteForA()  private onlyEligible returns (uint){\r\n        uint votes = teamA + 1;\r\n        eligibility[voter] = 1;\r\n        return votes;\r\n    }\r\n\r\n    function voteForB() private onlyEligible returns (uint){\r\n        uint votes = teamB + 1;\r\n        eligibility[voter] = 1;\r\n        return votes;\r\n    }\r\n\r\n    function voteForC() private onlyEligible returns (uint){\r\n         uint votes = teamC + 1;\r\n         eligibility[voter] = 1;\r\n         return votes;\r\n    }\r\n\r\n    function returnA() public  returns (uint){\r\n       return voteForA();\r\n    }\r\n    function returnB() public   returns (uint){\r\n       return voteForB();\r\n    }\r\n    function returnC() public  returns (uint){\r\n       return voteForC();\r\n    }\r\n}\r\n\r\n\r\n\r\n\r\n// 0xF7E9d6D72cB8e05bd14Ffc88bd7691Dad0683583 - contract address\r\n// 0xE31576cE576265410394434f95166F79ac33C1A4 - account address\r\n",
  "sourcePath": "C:\\Users\\Emmanuel\\Documents\\GitHub\\tax-collector\\contracts\\voting.sol",
  "compiler": {
    "name": "solc",
    "version": "0.5.16+commit.9c3226ce.Emscripten.clang"
  },
  "schemaVersion": "3.4.3",
  "updatedAt": "2021-11-27T13:59:11.183Z",
  "networkType": "ethereum",
  "devdoc": {
    "methods": {}
  },
  "userdoc": {
    "methods": {}
  }
}